:020000040800F2
:10000000A804002011260008312600083326000825
:100010004B2600084F260008532600080000000069
:10002000000000000000000000000000352600086D
:100030003726000800000000392600083B2600088B
:10004000572600085B2600085F2600086326000884
:10005000672600086B2600086F2600087326000834
:10006000772600087B2600087F26000883260008E4
:10007000872600088B2600088F2600089326000894
:10008000972600089B2600089F2600080000000015
:10009000000000000000000000000000A32600088F
:1000A000A7260008AB260008AF260008B3260008E4
:1000B000B7260008BB260008BF260008C326000894
:1000C000C7260008CB260008CF260008D326000844
:1000D000D7260008DB260008DF2600080000000005
:1000E000E3260008E7260008EB26000800000000D1
:1000F000000000000000000000000000EF260008E3
:1001000000000000F3260008F7260008FB26000880
:1001100000000000000000000000000000000000DF
:10012000FF26000803270008072700080B27000800
:100130000F27000800000000000000000000000081
:10014000000000000000000000000000132700086D
:10015000172700081B2700081F270008232700086F
:10016000272700082B2700080000000000000000DF
:10017000000000000000000000000000000000007F
:10018000000000002F270008000000000000000011
:100190003327000838B5040001D1012032BD04F135
:1001A0003C05687818B92870204600F04FFC00F034
:1001B00053F800F0EAFC2268DFF8BC10B0FBF1F164
:1001C00051606368DFF8B420934206D34FF496730E
:1001D00059434FF47A73B1FBF3F12368491C196258
:1001E0006168914208D24900B0FBF1F0C0F30B0105
:1001F000042913D2042011E0A26822B901EB4101C5
:10020000B0FBF1F005E019225143B0FBF1F040F4EE
:10021000804001050CBF012040F400402168C86106
:10022000E069216A0843216808602069E1680843A1
:10023000216888606069A16908432168C8602068F6
:10024000016841F0010101600020686020206870B1
:1002500000202063A87032BD2420687020680168E7
:100260004908490001607047208D401E2085608D3F
:10027000401E60857047000040420F00A1860100CB
:100280002DE9FC4700F008FA04F13C0605467078B9
:10029000202863D1009500F06AF800F014FA0028D5
:1002A0005CD13078012859D00120307000F06BF813
:1002B000534600F057F970704A464020B0704146EE
:1002C000002070600A9860620B98608500F049F821
:1002D0000C9F0195009700F00FFA78B17068042820
:1002E00002D1002030702EE0002030702DE0606AD6
:1002F000421C626200780861FFF7B6FF208DB8B13A
:100300002A46394600F041FAC0B9606A411C616270
:10031000216800780861208D401E2085618D491E6E
:10032000618521684A695207E8D580B20028DED18C
:100330002A463946204600F021FB40B17068042867
:1003400003D100F0C3F9012009E0032007E000F029
:1003500013F870700020B070307000E00220BDE82B
:10036000F6877A48E062608D208520467047192321
:100370000122DFF86C1370472068016841F40071B6
:1003800001602020704720680168C90703D4016814
:1003900041F00101016070472DE9F04F83B005463F
:1003A000894692469B4600F037FC05F13C0607461D
:1003B0007078202805D10097FFF7D9FF00F0C3F827
:1003C000002840F0A1803078012800F09D800120B5
:1003D0003070286800F0BEF85B4600F0D1F870700D
:1003E00052464020B0704946002070600C98686208
:1003F0000D9C00F0BEF801972846DDF83880CDF856
:10040000008000F0C4F940B17068042802D10020D7
:10041000307065E00020307060E0298D080004D065
:100420002868012905D100F0B2F8002000F03AF95F
:100430001CE002290AD100F0AAF82868016841F4FA
:100440000061016000200090286801E00021009117
:100450004169009180690090009807E0686A411C3A
:10046000696229680969017000F057F8288D010058
:1004700044D004282CD2012804D100F049F80028E7
:10048000ECD028E0022CDFF85C920097434609D1BB
:1004900000F057F8002821D1286800F00AF900F090
:1004A00043F8DBE700F04DF8C0B9286800F06FF8BA
:1004B0004346686A411C6962002229680969017023
:1004C000494600F02AF8009700F03DF830B9E3E71C
:1004D00000F01EF830B17068202801D1032014E02C
:1004E000012012E000F020F8286841694907BDD5D5
:1004F000696A4A1C6A6200690870B5E7202070705A
:100500000020B070307000E00220BDE8FE8F0000D7
:100510003A464146284600F058BA288D401E2885A4
:10052000688D401E68857047686A411C6962296849
:1005300009690170288D401E2885688D401E6885D8
:10054000704700224946284600F092B90000FFFF9C
:10055000012139700168C90703D4016841F0010124
:10056000016070472068016821F40061016021206A
:100570007047DFF880016C85E862688D28857047D8
:100580002868016821F40061016022207047016839
:1005900021F48061016070472DE9F84F00F07CF88C
:1005A00004F13C06054670780127202871D1DFF858
:1005B00030B1009519230122594600F084F8002833
:1005C00067D13078012864D03770FFF7DCFE00F087
:1005D0008BF82420707000207060DFF86C02E062FD
:1005E00000F036F9534600F06BF8002845D1216839
:1005F00008F0FE00086100F00FFB054609E0BAF1C3
:10060000000F04D000F008FB401B824501D2A0205F
:1006100070702168486949694008890A00F0010042
:1006200001F001017278084301D1A02AE7D120200E
:10063000707020684169890700F03BF812D50020EE
:100640000090192300F095F8012280690090594626
:100650000098009500F037F878B9202070700020DD
:10066000307017E021686FF48060486100951923AD
:100670000122594600F027F808B103200AE0384665
:10068000471C4845ACD320207070002030700120FA
:1006900000E00220BDE8F28F0446884691469A4663
:1006A00000F0BABA00902868416900918169009110
:1006B0000099016841F4007101607047009733466A
:1006C00000224FF00111204600F0D2B820680168E6
:1006D00041F400710160704790F83D0070470000E0
:1006E00002001000040001002068016821F400618C
:1006F000016070470000FFFF2DE9F843044689467A
:1007000000F03BF8089E099F15469846FFF7D6FF74
:1007100038BB216809F0FE00086100F0A1F818B1AB
:10072000206C04281DD11AE000903A4600F021F810
:10073000314680690090009800F027F850B9B8F170
:10074000010F10D02168280A08613A46314600F0AE
:100750001CF840B1206C042803D1FFF7B7FF01203B
:1007600005E0032003E02068EDB205610020BDE84C
:10077000F28320684169009170472068016841F464
:100780008071016070472A4641462046DDE02DE930
:10079000F047044682B020688946016841F48061D0
:1007A00001601646FFF7E9FFDDF828800B9D0095F4
:1007B0001F464346FFF784FF002841D12168DFF838
:1007C0008CA009F0FE0008612B464246514600F01D
:1007D0004DF800282FD100902A46FFF7CAFF414666
:1007E000806900900098FFF7D0FF68B9012F05D00D
:1007F0002168300A0861FFF7C6FF28B92068F6B201
:100800000661FFF7C0FF28B1206C042818D1FFF75C
:100810005DFF13E000F01CF84346FFF751FF78B985
:10082000216849F00100C0B208612B46424651469A
:1008300000F01CF828B1206C042801D1012000E050
:100840000320BDE8F68700000000FFFF0200010062
:100850002068016841F480710160009570470000D4
:100860003B463246004901E00200010020462EE0EE
:100870002DE9F041069E04460D4690461F4629028A
:10088000090E2068012917D14069284080B2A9B219
:10089000884217D00020404516D117F1010FEED045
:1008A00027B100F0B9F9801B8742E8D200F045F883
:1008B00081700170032008E08069284080B2A9B2ED
:1008C0008842E7D10120E6E70020BDE8F081F8B5D5
:1008D00000F06DF81F462902090E2068012916D183
:1008E0004169294089B2AAB2914216D041694905AD
:1008F00015D5FFF7DEFE6FF480602168486104F1D2
:100900003C0004214160002100F085F8F2BD8169BE
:10091000294089B2AAB29142E8D10020F2BD16F175
:10092000010FD8D026B100F077F9C01B8642D2D291
:1009300000F003F801700320F2BD002020632021A5
:1009400004F13C0041700021704770B500F02FF8B1
:100950002068406900060FD4204600F063F808B113
:10096000012070BD15F1010FF2D025B100F054F94E
:10097000801B8542ECD21EE0002070BD70B500F0F7
:1009800016F82068406940070FD4204600F04AF866
:1009900008B1012070BD15F1010FF2D025B100F0B2
:1009A0003BF9801B8542ECD205E0002070BD044677
:1009B0000D461646704700F027F8002121632021DC
:1009C000417000210170032070BD70B5FFF7EFFF8B
:1009D00020684169490615D44169C90609D56FF0F7
:1009E0001001416104F13C000021416000F013F866
:1009F00070BD25B100F010F9801B8542E8D200F0EF
:100A000003F8DCE7002070BD04F13C00416841F0D0
:100A10002001416070472163202141700021017055
:100A20000120704701684A6952050DD56FF4806254
:100A30004A6100F13C0104224A6000220263202046
:100A400048700A700120704700207047704700000E
:100A50002DE9F843534E04463068884600F00F00F5
:100A6000404502D200F08AF862D120784E4F8007CC
:100A700005D5B868A16820F0F0000843B860207878
:100A8000C0074DD56068012802D13968890305E0A7
:100A9000022818BF032803D13968890103D447E02D
:100AA0003968890744D5B968890840EA8100B86087
:100AB00041F2893900F0B0F80546606801280AD192
:100AC000B86800F00C0004282AD000F0A5F8401BFC
:100AD0004845F5D322E002280AD1B86800F00C009E
:100AE00008281DD000F098F8401B4845F5D315E0C4
:100AF00003280AD1B86800F00C000C2810D000F0D0
:100B00008BF8401B4845F5D308E0B86810F00C0F8F
:100B100006D000F081F8401B4845F6D303202BE0B7
:100B2000306800F00F00804504D200F027F801D0B3
:100B3000012021E02078400705D5B868E16820F45D
:100B4000E0500843B8602078000706D5B8682169EE
:100B500020F4604040EAC100B86000F033F8BA68A1
:100B60000FF25001C2F30312895CC8400F490860BC
:100B70000F2000F057F80020BDE8F28386F80080CF
:100B8000306800F00F00404570470848084A006888
:100B900012680FF22001C2F38222FFE7895CC8408D
:100BA00070470000003C0240003802408C000020EA
:100BB000083802400000000001020304010203049F
:100BC000060708091148416801F00C01042902D008
:100BD000082902D017E00E487047016802685202E7
:100BE00001F03F014CBF0A4A0A4AB2FBF1F1026828
:100BF0000068C0F30140C2F38812401C514340001A
:100C0000B1FBF0F070470348704700BF0438024062
:100C100040787D010024F40001480068704700BF5F
:100C2000840A002010B50446074800684FF47A7122
:100C3000B0FBF1F000F041F8002221464FF0FF3008
:100C400000F01EF8002010BD8C00002009010028D3
:100C500006D5244A00F00F00104400F8041C704729
:100C6000214A1154704721490A684FF6FF030002D8
:100C70001A4000F4E06010431D4A104308607047BA
:100C800038B51A4B1B68C3F30223C3F10704052CC4
:100C900028BF04241D1D072D34BF0023DB1E0125A2
:100CA00005FA04F4641E2140994005FA03F35B1E23
:100CB0001A401143BDE83440C8E710B5401EB0F1FA
:100CC000807F01D3012010BD0A4C60600F214FF0DE
:100CD000FF30FFF7BBFF0020A0600720206000204E
:100CE00010BD000018ED00E000E400E00CED00E0B5
:100CF0000000FA0510E000E02DE9F84F83460C46AD
:100D0000914600F0E3F800270026804610B100F07D
:100D1000B5F806E0584600F0C9FA054600F0AEF80E
:100D20002844451C4FF4F0700BEB000A9BF8E001DF
:100D300030B3504600F0BAFAC61C70190830FF2DC7
:100D400088BFC01CFF2E88BFC01CFF280CD9C12142
:100D50002170607102216170010EA170010CE170BF
:100D6000010A2171062005E0D1212170A070022125
:100D70006170032050A100F07DF8871C4B78537000
:100D80008120E055FF2D9CBF9120E0559BF8E001AC
:100D900018B9E05D40F04000E055781C0121215475
:100DA000411C481CFF2D0AD92A0E6254290C2154DB
:100DB000401C290A2154401C2554401C00E0655465
:100DC0003EA100F057F8401C451C04F80080B8F123
:100DD000000F0BD1584600F069FA024659466019D7
:100DE00000F080FA584600F061FA451900F046F824
:100DF00002460BF15001601900F074FA00F03EF861
:100E00009BF8E011401989B3411CFF2E0ED94122F5
:100E1000225401206054481C310E2154401C310CD6
:100E20002154401C310A2154401C04E05122225418
:100E300001206054481C265421A1401C00F01AF8DF
:100E4000401C02212154401C1EA100F013F8851CF7
:100E50004B785370504600F029FA0246514660190B
:100E600000F040FA504600F021FA2844A9F80000AA
:100E7000BDE8F18F22180B78137070470BF150000A
:100E800000F014BA10B582B00021ADF800106A4627
:100E90000D4CA11CFFF730FFBDF80000000A2070C8
:100EA0002246BDF800006070BDF80000811C0020E3
:100EB00000F054FA16BD0000537000005500000009
:100EC00054000000656E00001808002010B50446AC
:100ED0000B220FF2382100F05FFB08B9012010BD92
:100EE0000C220FF2382100F00DF908B9022010BDD4
:100EF00007220FF2382100F005F908B9032010BDD0
:100F000008220FF2342100F0FDF808B9042010BDCA
:100F100004220FF2302100F0F5F808B9052010BDC9
:100F200007220FF2282100F0EDF808B9062010BDC5
:100F30001A220FF2242100F0E5F808B9072010BDAD
:100F40000A220FF2302100F0DDF808B9082010BDA8
:100F500007220FF22C2100F0D5F808B9092010BDA6
:100F600007220FF2282100F0CDF808B90A2010BDA1
:100F700006220FF2242100F0C5F808B90B2010BD9D
:100F800006220FF21C2100F0BDF808B90C2010BD9C
:100F900006220FF2142100F0B5F808B90D2010BD9B
:100FA00006220FF20C2100F0ADF808B90E2010BD9A
:100FB00005220FF2042100F0A5F808B90F2010BD9A
:100FC00009220FF2FC1100F09DF808B9102010BDA5
:100FD00005220FF2F81100F095F808B9112010BDA4
:100FE00007220FF2F01100F08DF808B9122010BDA1
:100FF00004220FF2EC1100F085F808B9132010BD9F
:1010000004220FF2E41100F07DF808B9142010BD9D
:1010100004220FF2DC1100F075F808B9152010BD9C
:1010200005220FF2D41100F06DF808B9162010BD9A
:1010300005220FF2CC1100F065F808B9172010BD99
:1010400008220FF2C41100F05DF808B9182010BD95
:101050000A220FF2C01100F055F808B9192010BD8E
:1010600009220FF2BC1100F04DF808B91A2010BD8A
:101070000A220FF2B81100F045F808B91B2010BD84
:101080000B220FF2B41100F03DF808B91C2010BD7E
:1010900007220FF2B41100F035F808B91D2010BD79
:1010A0000B220FF2B01100F02DF808B91E2010BD70
:1010B0000B220FF2B01100F025F808B91F2010BD67
:1010C0000C220FF2B01100F01DF808B9202010BD5D
:1010D0000C220FF2B01100F015F808B9212010BD54
:1010E00008220FF2B01100F00DF808B9222010BD4F
:1010F00008220FF2AC1100F005F808B9232010BD4A
:10110000002010BD204600F047BA000068747470DB
:101110003A2F2F7777772E000000000068747470E4
:10112000733A2F2F7777772E000000006874747061
:101130003A2F2F000000000068747470733A2F2F4C
:101140000000000074656C3A000000006D61696C7D
:10115000746F3A00000000006674703A2F2F616EC1
:101160006F6E796D6F75733A616E6F6E796D6F75B5
:10117000734000006674703A2F2F6674702E000062
:10118000667470733A2F2F0000000000736674704D
:101190003A2F2F0000000000736D623A2F2F0000DD
:1011A0006E66733A2F2F00006674703A2F2F00007E
:1011B0006461763A2F2F00006E6577733A00000065
:1011C00074656C6E65743A2F2F000000696D617054
:1011D0003A000000727473703A2F2F000000000074
:1011E00075726E3A00000000706F703A00000000E7
:1011F0007369703A00000000736970733A00000070
:10120000746674703A00000062747370703A2F2F25
:101210000000000062746C326361703A2F2F00008E
:101220006274676F65703A2F2F0000007463706FEF
:101230006265783A2F2F0000697264616F62657889
:101240003A2F2F000000000066696C653A2F2F00CE
:101250000000000075726E3A6570633A69643A0086
:101260000000000075726E3A6570633A7461670041
:101270000000000075726E3A6570633A7061743AEE
:101280000000000075726E3A6570633A7261773AD9
:101290000000000075726E3A6570633A000000004D
:1012A00075726E3A6E66633A0000000000F1010349
:1012B000810704D010F8011B89B18107FAD10268B7
:1012C000B2F10131914311F0803F04BF50F8042F77
:1012D000F6E710F8011B11B110F8011BFBE7C01A6B
:1012E0007047000062B38B0708D0521E11F8013B13
:1012F00000F8013B00F024808B07F6D1830740F013
:10130000208000BF103A07D330B4B1E83810103A4B
:10131000A0E83810F9D230BC530724BFB1E8081058
:10132000A0E8081044BF51F8043B40F8043BD20742
:1013300024BF31F8022B20F8022B44BF0B78037036
:101340007047083A07D3B1E80810083A40F8043B60
:1013500040F804CBF7D25307E4E700002DE9F84347
:101360000024A1F102098046B9F5007F164688BF26
:10137000032046D800F0ABF810BB30787178824F6C
:1013800041EA0025A94510D1FF2D8DF8014006DB6B
:10139000ADF80240032200F036F8042405E0F868B6
:1013A000411C012200F031F80224F868201808EBF3
:1013B00000011FFA89F289B2B01C00F056F908B199
:1013C00001201EE0A9451BD1FF2D0ADBFF208DF86F
:1013D0000100032230788DF8020070788DF8030048
:1013E00003E070788DF80100012200F00CF8FE2077
:1013F0008DF800000122F8682018291800F063F821
:101400000020BDE8F283F868411C89B20DF10100AB
:1014100000F02BB910B504460422002100F025F994
:101420000146A07838B9080005D104220421201D06
:1014300000F01BF90146080018BF012010BD10B5CF
:1014400004460422002100F005F90146A07838B9CD
:10145000080005D104220421201D00F0FBF80146FC
:10146000080018BF012010BD10B5474C2078E27865
:1014700084B001A98DF80400CA7004226078487015
:10148000A0788870FF2805D1E2888DF80B20100A1B
:1014900088710822E26001A8FFF7BCFF010010D1AB
:1014A00003208DF800000122E16800F00CF838B943
:1014B0008DF800000122E068411C00F004F800B142
:1014C000012004B010BD89B2684600F0CEB870B5F6
:1014D0002D4C0020207284B001A8FFF7B0FF01005E
:1014E00050D19DF80400E12818BFE22801BF01A8EF
:1014F000417801F0FC02402A43D18278130008D1E0
:1015000083799DF80B5045EA032300221D460826E7
:1015100002E0002315460426A270E6609DF8042030
:10152000C078E38022706170E07007E09DF80210DF
:101530009DF8032002EB01210818E060E16800F04B
:1015400025F8F0B9E068A8421BD29DF800209DF86C
:101550000110032A0BD109B9012005E060780321AD
:10156000084214BF03200220207200200AE0FD2A56
:1015700003D1FF29DAD04018DFE7FE2A18BF401C4C
:10158000DBD1052004B070BD6C0A0020042289B2B2
:10159000684600F05FB800000300002013F0030F5E
:1015A00009D0521E22BF13F8010B11F801CBB0EB8A
:1015B0000C00F3D07047121F22BF53F8040B51F8F0
:1015C00004CB6045F7D0121D0AD200BA9CFA8CFCFD
:1015D000B0EB0C0038BF6FF0000088BF01207047EF
:1015E000521E22BF13F8010B11F801CBB0EB0C0017
:1015F000F6D0521C08BF10467047000038B50020D6
:101600008DF80000264C2078B0B9264D28680100DE
:1016100001D0804708B1012032BD6968684688471B
:101620009DF800005A281CBF4E285E2806D10120D4
:10163000207065601C486862002032BD0020606038
:101640002070E8E71649496889680A0018BF08470A
:101650000120704710B500F012F85B691C0001D141
:10166000012010BDBDE81040184710B500F007F884
:101670009B691C0001D1012010BD984702E0084B76
:101680005B687047010004D10120FFF7DBFF0028F1
:10169000FAD110BD02484068406A7047000000005F
:1016A0007C0A0020000000202800002000F0C6BABC
:1016B000012240F61C114AE00146A62000F0CEBAF5
:1016C00001460120CA0748BF00F0A9B9890748BFF1
:1016D00000F0B3B9704710B582B0044601224FF450
:1016E0001161684600F033F8010007D19DF8000051
:1016F00000074CBF022001202080002016BD70B5DD
:1017000000F033F808B1032070BD33462A46204666
:10171000BDE87040A62100F0A0BA2DE9F04100F02C
:101720005AF808B1032010E000F044F8A621404622
:1017300000F092FA00F038F80120FFF7BDFF002812
:10174000FAD10EB1002CEFD02046BDE8F08170B583
:1017500000F00BF808B1032070BD33462A4620463E
:10176000BDE87040AE2100F078BA04460D4616463A
:101770000120A1E72DE9F04100F02DF808B1032088
:1017800010E000F017F8AE21404600F065FA00F0D6
:101790000BF80120FFF790FF0028FAD10EB1002CC2
:1017A000EFD02046BDE8F081F61B0446B8447D1911
:1017B000B6B27047052E0ADBADB2690805EB917130
:1017C000C5F10400890800EB8107FFB200E0F7B221
:1017D0003B46AAB2704780460D46164601206BE78D
:1017E0001CB50446082240F6141100F0CAF80100A6
:1017F0001AD10020206043420DEB03022168D27908
:10180000401C42EA012104282160F4DB00206060D2
:1018100043420DEB03026168D278401C42EA012189
:1018200004286160F4DB002016BD012240F613118C
:101830008DE7012240F6121189E71CB50446082203
:101840004FF4006100F09DF8010018D19DF80710D9
:10185000E1719DF80610A1719DF8051061719DF868
:10186000041021719DF80310E1709DF80210A17021
:101870009DF8010060709DF800002070002016BDEA
:1018800038B500F026F8010008D100F017F8084339
:101890008DF800000122294600F093F832BD38B5DA
:1018A00000F017F8010008D100F008F888438DF81F
:1018B00000000122294600F084F832BDA20804EBA2
:1018C0005272D2089DF800000121A4EBC20291409F
:1018D0007047044600208DF800000122E00840F423
:1018E00000652946684632E710B584B000F01AF862
:1018F000092200F01DF809234FF41062AE2168465A
:1019000000F0AAF904B010BD10B584B000F00AF8D8
:10191000072200F00DF809224FF4106100F051F891
:1019200004B010BD69460022002300241CC170478A
:101930008DF804200022D40020FA04F30DF80230C0
:101940000DEB0204521C042A6371F4DB704710B5DE
:101950000C4682B00146012200F013F801000FD1BD
:101960009DF8000000F0010020709DF80000C0F319
:10197000410060709DF80000C0F3C100A07000201D
:1019800016BD6846E3E680B58A78D20002F01802F8
:101990008DF800204B785B0003F006031A438DF8A6
:1019A0000020097801F0010111438DF80010012297
:1019B000014600F006F802BD8DF8000001224FF448
:1019C00012616846D6E610B582B00446032240F69E
:1019D0001D11FFF7D6FF01000BD19DF8020020700A
:1019E0009DF8010060809DF8001041EA00206080B1
:1019F000002016BD10B582B000F00BF8010007D131
:101A00009DF8000010F0080018BF01202070002091
:101A100016BD044601224FF41161684697E680B571
:101A200001234FF41162AE21684600F016F901005F
:101A300002D1002000F028F802BD80B5FFF7EAFFD0
:101A4000010005D19DF8000040F0080000F01CF8EE
:101A500002BD10B582B0FFF7DCFF010007D19DF891
:101A6000000010F0040018BF01202070002016BDF7
:101A700080B5FFF7CFFF010005D19DF8000000F011
:101A8000FB0000F001F802BD8DF8000001224FF4C8
:101A9000116168466EE680B5FFF7BCFF010005D115
:101AA0009DF8000040F00400FFF7EEFF02BD10B506
:101AB00082B0FFF7AEFF01000ED19DF8000000F0EC
:101AC0000300012806D004D3032803D038BF022026
:101AD00000D300202070002016BD10B582B0FFF7A3
:101AE00098FF010006D19DF8000000F0FC002043A3
:101AF000FFF7CAFF16BD10B582B0044600F027F804
:101B0000010007D19DF8000010F0010018BF01206E
:101B10002070002016BD80B500F019F8010005D135
:101B20009DF8000040F00100FFF746FF02BD80B5C0
:101B300000F00DF8010005D19DF8000000F0FE0056
:101B4000FFF73AFF02BD044600208DF80000012295
:101B50004FF412616846FAE510B582B0FFF7F3FF63
:101B6000010007D19DF8000010F0020018BF01200D
:101B70002070002016BD10B582B0FFF7E4FF010011
:101B800007D19DF8000010F0800018BF01202070E0
:101B9000002016BD00B587B000F048F8016801F0DC
:101BA00001010091009900210091016841F00201BA
:101BB000016001A9006800F0020000900098302048
:101BC0000190012000F02CF8644800F0E1F84FF497
:101BD0008060019001A91EE0614B33F8301003EBE7
:101BE000C000012205E05E4B33F8301003EBC0006B
:101BF0000022406800F08FB900B587B000F016F8F9
:101C000001A9006800F001000090009840200190B8
:101C1000002000F005F8534800F0BAF807B000BD06
:101C20000290032004900020039070470020009051
:101C30004D48016841F001010160704780B5FFF730
:101C4000DBFF00F041F8002818BF022803D001D2C2
:101C5000012002BD032002BD01E00FE024E010B529
:101C600084B000F01AF8FEF70BFB002818BF02281A
:101C700002D034BF0120032004B010BD10B584B0E1
:101C800000F00BF8FEF788FB002818BF022802D0EE
:101C900034BF0120032004B010BD01930090C8247C
:101CA000029410233148704780B50A460146C82384
:101CB0002E48FEF771FC002818BF022803D001D27D
:101CC000012002BD032002BD30B5284C87B020465C
:101CD000FEF702FD002500283BD125482060A560C5
:101CE0006561E5612562234860604FF480402061B2
:101CF00000951D4800F040F800F03EF8016941F4FD
:101D00000011016101A9006900F400100090009821
:101D100003954FF4807001900220029003200490FC
:101D2000042005900D4D284600F032F84FF4007065
:101D3000019001A91220029000200390032004903A
:101D400004200590284600F023F82046FEF722FAEA
:101D50000546284607B030BD0000000000040240E0
:101D6000900000200000024030380240180A002095
:101D700000540040801A0600016841F00201016031
:101D8000016801F002010091009900957047000080
:101D90002DE9F84F02460023DFF88481DFF88491B3
:101DA000DFF884A14FF00F0B01200C68984000EA87
:101DB000040E864540F0A9804D689C00022D18BF96
:101DC000122D0FD1DD0802EB850C04F01C05DCF8A8
:101DD00020600BFA05F7BE430F6907FA05F5354396
:101DE000CCF820504FEA430C032516680F7905FA0A
:101DF0000CF5ED4307F003072E4007FA0CF73E43BE
:101E000016604E68012E18BF022E03D0112E18BF87
:101E1000122E0FD19668CF682E4007FA0CF73E437A
:101E20009660566826EA00004E68C6F300169E408B
:101E300030435060D06828408D6805FA0CF528437F
:101E4000D0604868C00060D50020009004F00C0607
:101E5000DAF8000040F48040CAF800000BFA06F4FB
:101E6000DAF8000000F4804000900098980859F8D3
:101E7000205025EA04042D4DAA4208BF002513D0A6
:101E80002B4DAA4208BF01250ED02A4DAA4208BFF9
:101E9000022509D0284DAA4208BF032504D0274DAA
:101EA000AA420CBF04250725B5402C4349F8204021
:101EB0006FEA0E00D8F8004000EA040C4C68E40316
:101EC00048BF4EEA0C0CC8F800C0D8F8044000EA3D
:101ED000040C4C68A40348BF4EEA0C0CC8F804C0BC
:101EE000D8F8084000EA040C4C68E40248BF4EEA07
:101EF0000C0CC8F808C0D8F80C4020404C68A4026C
:101F000048BF4EEA0000C8F80C005B1C102BFFF421
:101F10004BAFBDE8F18F02B9090481617047000041
:101F2000003C0140083801404438024000000240B3
:101F30000004024000080240000C02400010024071
:101F40002DE9F047044682B020788F4EC00741F259
:101F500089392FD5B06800F00C00042807D0B0688C
:101F600000F00C00082809D17068400206D53068DE
:101F700080031FD56068E8B9012003E16068B07094
:101F8000606858B1FEF748FE05463068800311D4FA
:101F9000FEF742FE401B4845F7D3F0E0FEF73CFE5B
:101FA00005463068800305D5FEF736FE401B4845E0
:101FB000F7D3E4E02078754F800718D5B06810F0AB
:101FC0000C0F07D0B06800F00C00082826D170680C
:101FD000400223D43068800702D5E0680128CBD1C5
:101FE0003068216920F0F80040EAC10030602078B4
:101FF000DFF89C8100073CD56169664859B301212F
:102000000160FEF709FE0546D8F80400800730D4C9
:10201000FEF702FE401B0328F6D3B0E0E06868B18B
:1020200001203860FEF7F8FD054630688007D7D4F8
:10203000FEF7F2FD401B0328F7D3A0E03860FEF75F
:10204000EBFD054630688007D1D5FEF7E5FD401B66
:102050000328F7D393E00160FEF7DEFD0546D8F8CC
:102060000400800705D5FEF7D7FD401B0328F6D3F3
:1020700085E0207840073ED500200090DFF818A1C9
:10208000306C40F080503064306C00F08050009034
:102090000098DAF8000040F48070CAF80000FEF7FB
:1020A000BBFD0546DAF80000C00505D4FEF7B4FD17
:1020B000401B0328F6D362E0A06888F80000A068FF
:1020C00060B1FEF7A9FD0546D8F80000800712D4DC
:1020D000FEF7A2FD401B4845F6D350E0FEF79CFDFD
:1020E0000546D8F80000800705D5FEF795FD401B92
:1020F0004845F6D343E0A069002842D0B16801F01A
:102100000C0108293FF438AF02282BD10020386693
:10211000FEF782FD05463068800105D5FEF77CFD9F
:10212000401B0328F7D32AE0E069216A0843616A6B
:1021300040EA8110A16A891EC903090C40EA0140E6
:10214000E16A40EA0160706001203866FEF764FDD4
:1021500005463068800114D4FEF75EFD401B03285D
:10216000F7D30CE000203866FEF756FD05463068D0
:10217000800106D5FEF750FD401B0328F7D303204E
:1021800000E00020BDE8F68700380240000047422A
:1021900070380240800E47420070004038B500F0B1
:1021A00085F800F09FF8002000F0E4F8FFF7F2FC5B
:1021B0000020FFF711FD00F051F80120FFF70CFDA2
:1021C00000F04CF80220FFF707FD00F047F8002070
:1021D000FFF709FD00F042F80120FFF704FD00F0D1
:1021E0003DF80220FFF7FFFCFFF708FA0028FBD1BB
:1021F00000F038F8FFF76BF958B11648E12101708B
:102200004021417081700521C170FFF72DF9002830
:10221000FBD10120FFF7E0FC0FF274000E4C0EC85A
:102220000EC40FF27C002CC80C3C04F1500108A035
:102230002CC14FF4F071214402780A702046FEF759
:1022400021FE0028FAD10220FFF7C6FCFEE70000BD
:10225000000000006C0A0020A80400204FF4FA706F
:1022600000F0BEB880B5FFF715FA78B1FFF712FAA3
:10227000006D8047FFF70EFAC06B8047FFF70AFA40
:1022800001460020896CBDE80440084701BD0000FC
:10229000687474703A2F2F7777772E000000000053
:1022A00073742E636F6D2F737432350080B50B48D5
:1022B000016841F400710160016841F480610160CE
:1022C000016841F4807101600320FEF7CCFC0F200F
:1022D000FEF7A8FC00F004F8002002BD003C02401C
:1022E0007047000000B593B0002000901F480168BF
:1022F00041F080510160006800F08050009000982B
:10230000002000901A48016821F4404141F4004146
:102310000160006800F440400090009802200690A0
:102320000120099010200A9002200C9000200D90AE
:1023300010200E904FF4A8700F90042010900720EA
:10234000119006A8FFF7FCFD0F200190022102204A
:102350000290002003904FF48050049000200590DC
:1023600001A8FEF775FB13B000BD00BF4038024066
:102370000070004070B586B0044600200090DFF881
:102380005460DFF8540000F019F80FF2500030F8F4
:102390001450019501200290002003900220049027
:1023A00056F82400FFF7F4FC00F002F806B070BD08
:1023B00056F8240000222946FFF7ADBD016841F020
:1023C0000101016001A9006800F00100009000987F
:1023D00070470000880000203038024020000000D4
:1023E00011B581B0FEF718FC0446FEF715FC019903
:1023F000001B8842F9D313BDAD160008B1160008C2
:10240000B9160008C1160008D7160008FF16000804
:102410001B1700084F170008751700080000000080
:10242000E11700082B180008331800083B180008B3
:10243000811800089F180008E91800080919000809
:102440004F19000887190008C7190008F519000876
:102450001F1A00083B1A0008531A0008711A0008D6
:10246000971A0008AF1A0008DB1A0008F71A0008CC
:10247000171B00082F1B0008591B0008771B0008BA
:10248000000002400024F40010000000000402409C
:102490002000000000040240000400000000024090
:1024A0000E480F4A016841F4700101600D4801684F
:1024B00041F001010160002181600168114001606B
:1024C00009494160016821F4802101600021C16057
:1024D0004FF00060054908607047000088ED00E09B
:1024E000FFFFF6FE003802401030002408ED00E047
:1024F00019E050F8041BCB0744BFA9F10103591898
:10250000121F0023042A41F8043BF9D25FEA827CBF
:102510000B4604D54FF0000CA1F800C09B1CD1075E
:1025200044BF0021197050F8042B002AE1D17047F4
:1025300010B450F8041B79B10268436802440830B3
:10254000DC0744BFA9F10104E31852F8044B43F837
:10255000044B091FF9D1ECE710BC704710B50749CF
:1025600079441831064C7C44163404E00A68081D8E
:10257000114488470146A142F8D110BD2C0000004B
:102580004C0000004EF68851CEF20001086840F47D
:1025900070000860BFF34F8FBFF36F8F4FF0007074
:1025A000E1EE100A7047000049FFFFFFE005000060
:1025B000A80400200000000079FFFFFFA800000031
:1025C00038FEFFFF000000200000000000F00BF8C4
:1025D000002801D0FFF7C2FF0020AFF30080FFF713
:1025E000DDFD00F002F80120704700F001B80000A6
:1025F0000746384600F002F8FBE7000080B5AFF36D
:102600000080024A11001820ABBEFBE72600020042
:102610000148804701480047A12400083F260008E0
:1026200002480168491C0160704700BF840A00200D
:102630007047FEE7704770477047FFF7F1BFAFF391
:102640000080FFF79FFFFFF7C1FFFFF7FEBFFFF717
:10265000FEBFFFF7FEBFFFF7FEBFFFF7FEBFFFF7AE
:10266000FEBFFFF7FEBFFFF7FEBFFFF7FEBFFFF79E
:10267000FEBFFFF7FEBFFFF7FEBFFFF7FEBFFFF78E
:10268000FEBFFFF7FEBFFFF7FEBFFFF7FEBFFFF77E
:10269000FEBFFFF7FEBFFFF7FEBFFFF7FEBFFFF76E
:1026A000FEBFFFF7FEBFFFF7FEBFFFF7FEBFFFF75E
:1026B000FEBFFFF7FEBFFFF7FEBFFFF7FEBFFFF74E
:1026C000FEBFFFF7FEBFFFF7FEBFFFF7FEBFFFF73E
:1026D000FEBFFFF7FEBFFFF7FEBFFFF7FEBFFFF72E
:1026E000FEBFFFF7FEBFFFF7FEBFFFF7FEBFFFF71E
:1026F000FEBFFFF7FEBFFFF7FEBFFFF7FEBFFFF70E
:10270000FEBFFFF7FEBFFFF7FEBFFFF7FEBFFFF7FD
:10271000FEBFFFF7FEBFFFF7FEBFFFF7FEBFFFF7ED
:10272000FEBFFFF7FEBFFFF7FEBFFFF7FEBFFFF7DD
:06273000FEBFFFF7FEBF33
:040000050800263F8A
:00000001FF
