:020000040800F2
:10000000A8040020E1260008BD260008BF2600083D
:1000100000000000000000000000000000000000E0
:10002000000000000000000000000000C1260008E1
:10003000C326000800000000C5260008C7260008E7
:10004000630700088B0E0008FF0E00089B260008BF
:10005000A7260008FD260008FF260008CF26000876
:1000600001270008032700080527000807270008C4
:10007000092700080B270008000000000D270008D2
:10008000000000000F270008000000000000000032
:10009000112700080000000013270008152700089A
:1000A00017270008192700081B2700081D2700082C
:1000B0001F270008212700082327000825270008FC
:1000C00070B5040001D1012070BD25003435002633
:1000D0006878002803D12E70200000F041FB022038
:1000E00068702068016801229143016060681C49C2
:1000F000014020680161206881681A4A0A408260D4
:10010000A068002809D0E168012901D1802100E020
:1001100084210902014320688160E068022803D13C
:100120008020000121684860206841680E4A0A4327
:100130004260206961690143A069000208432168A7
:10014000C860E069216A01432068016020680121DC
:1001500002680A4302606E606970002070BD000092
:10016000FFFFFFF0FF7FFFFF00800002F3B581B0CB
:10017000074634377878012876D10898002860D06F
:10018000099C20005DD001980068806900046BD450
:100190003878012868D00120387052207870002605
:1001A0007E600A98009068460189019800F081F904
:1001B000002803D0786804283E7041E02500FF2D18
:1001C000009009D980235B04FF22684601890198C9
:1001D00000F0B1FAFF2507E080239B04E2B26846F5
:1001E0000189019800F0A7FA0A99019800F005FA30
:1001F000002823D108980078019909688862089836
:10020000401C08906D1E641E002D0FD120040FD0DD
:100210000A9B00228021019800F0B3F9002812D136
:10022000A4B22500FF2D0090D6D9CBE72004DBD166
:100230001921019800F00CFA002806D078680428EB
:1002400001D10120FEBD0320FEBD202001990968D7
:10025000C8610198006841684A4A0A40426001202A
:1002600078703E700020FEBD0220FEBDF3B583B065
:10027000343001904078012800D080E00A9F002FA0
:1002800068D00B9D280065D0039800688069000441
:1002900075D401980078012871D001200199087067
:1002A0006220019948700026019846600C980090E1
:1002B0006846018A039800F030F9002805D00198BB
:1002C000406804280198067043E02C0090208001CB
:1002D000FF2C009009D980235B04FF226846018A25
:1002E000039800F028FAFF2407E080239B04EAB279
:1002F0006846018A039800F01EFA0C9B0022042134
:10030000039800F03EF9002826D103980068406A5F
:1003100038707F1C641E6D1E002C0FD128040FD076
:100320000C9B00228021039800F02BF9002813D1A8
:10033000ADB22C00FF2C0090D7D9CCE72804DCD13B
:100340001921039800F084F9002807D0019840682B
:10035000042801D1012013E0032011E0202003999B
:100360000968C861039800684168064A0A4042600B
:1003700001200199487001980670002000E00220D9
:1003800005B0F0BD00E800FEF7B504001F00002531
:10039000009534304078012800D081E020688069E1
:1003A00000047DD43420205C012879D0012034223F
:1003B000A0540220220034325070200034304560B6
:1003C0008805800D0190E0680128019901D1364827
:1003D00001E0A020800108432168486000F0C2F9D4
:1003E000060020688169890613D48169C90610D482
:1003F00021003431497803290BD00020C0438742C3
:10040000EFD0002F44D000F0ADF9801B8742E8D236
:100410003EE08069C00612D43B000022202120006B
:1004200000F0AFF8002839D120202168C8610120F0
:10043000210034314870342025540020FEBD3B009B
:1004400000222021200000F09CF8002826D1102056
:100450002168C86120202168C8610098411C009172
:100460000299884210D1206841688022D2010A4353
:1004700042603B0000222021200000F082F800288A
:100480000CD120202168C8610098029988429AD333
:100490000120210034314870342025540320FEBD52
:1004A0000220FEBD00000000002000023521405C5B
:1004B0007047F8B5040017001D00802080010090EF
:1004C000C302EAB2200000F036F9069E3100200097
:1004D00000F093F8002803D0A06B04281BD10DE096
:1004E000012D0DD0380A216888623100200000F00B
:1004F00084F8002804D0A06B04280CD10120F2BDA0
:10050000FFB220688762330000228021200000F0C3
:1005100038F8002800D00320F2BDF8B50400170019
:100520001D008020800100900023EAB2200000F02E
:1005300002F9069E3100200000F05FF8002803D089
:10054000A06B04281BD10DE0012D0DD0380A2168C5
:1005500088623100200000F050F8002804D0A06B21
:1005600004280CD10120F2BDFFB22068876233005D
:1005700000224021200000F004F8002800D00320D1
:10058000F2BDF7B505001C0000F0ECF80090002764
:10059000FF43FE0B6846007A002812D101982968B3
:1005A0008969014031403040814224D0BC42F5D0BD
:1005B000002C18D000F0D6F80099401A8442EDD2F1
:1005C00011E0019829688969014031403040814239
:1005D00011D1BC42F5D0002C05D000F0C3F8009931
:1005E000401A8442EDD228003430012141700021AC
:1005F00001700320FEBD0020FEBD70B504000E009A
:1006000000F0B0F805002068806980071ED4310032
:10061000200000F045F8002801D0012070BD002026
:10062000C0438642EFD0002E04D000F09BF8401B60
:100630008642E8D220003430416820220A434260DA
:100640000121417000210170032070BD002070BDA8
:10065000F8B504000E0000F085F80700202520689A
:10066000806928400FD13100200000F019F80028DF
:1006700001D00120F2BD002E04D000F073F8C01BA1
:100680008642ECD201E00020F2BD20003430416807
:100690000D43456001214170002101700320F2BD2E
:1006A000F2B5040000F05EF80700206810258169AB
:1006B00029403ED0260034367178122905D0717851
:1006C000522902D07178622906D14168890103D488
:1006D0004168AA020A4342602068202182690A40D8
:1006E00012D100980021C9438842F5D0002805D0D6
:1006F00000F038F8C01B00998142EDD201207070E3
:10070000002030700320F2BDC5612068C1612168FE
:1007100001208A69024000D1C86121684A680E4BF5
:1007200013404B6004217160707000203070012014
:10073000F2BD0020F2BD30B500684468074D254089
:100740008905890D294312040A4313430399194368
:10075000416030BD0000000000E800FE009800FC91
:100760007047FEE701480068704700BF6C0A002030
:10077000F0B583B00400A44D2078C00754D580277D
:10078000BF02E8680C210140082907D0E8680C2165
:1007900001400C290AD1E868C00307D52868074042
:1007A00042D0606800283FD10120FEBD6068790812
:1007B000884201D128680DE0B449A022D2029042BB
:1007C000286809D10140296028687900014329601F
:1007D00028687908014309E0014029602868790800
:1007E0000840009000982868A94901402960606885
:1007F00000280CD0FFF7B6FF06002868384013D158
:10080000FFF7B0FF801BB5498842F6D3C3E1FFF77D
:10081000A9FF06002868384006D0FFF7A3FF801B19
:10082000AE498842F6D3B6E12078800719D5AC4F9F
:10083000E8680C210140042907D0E8680C21014038
:100840000C294CD1E868C00349D42868400702D578
:10085000E0680128A8D16868074020690002384391
:100860006860B64F2078C00623D5E8680C210140A7
:1008700059D12868800502D5E069002894D06868BD
:10088000AF490140606A0843686068680002000A76
:10089000216A09060143696000F040FAA949EA6843
:1008A0001206120F895CC840BD490860032000F0A1
:1008B00081FA2078000774D560690028286D61D01E
:1008C000012101432965FFF74DFF0600286D8007D0
:1008D00067D4FFF747FF801B0328F7D35BE1E0688D
:1008E0000921C94300280FD02A6811400843286015
:1008F000FFF738FF060028684007ACD4FFF732FF47
:10090000801B0328F7D346E1286801402960FFF7E0
:1009100029FF060028684007A3D5FFF723FF801BA7
:100920000328F7D337E1E069002828681CD0A90D17
:1009300001432960FFF716FF06002868800505D4EB
:10094000FFF710FF801B0328F7D324E168687C4978
:100950000140606A0843686068680002000A216A12
:10096000090601436960A4E738402860FFF7FAFEF2
:100970000600286880059CD5FFF7F4FE801B03283D
:10098000F7D308E1012188432865FFF7EBFE060055
:10099000286D800705D5FFF7E5FE801B0328F7D3F8
:1009A000F9E02078800631D57E48A1690029A96840
:1009B00016D001220A43AA60696B01220A436A63C6
:1009C0000168420C0A430260FFF7CCFE0600A868EB
:1009D00080071BD4FFF7C6FE801B0328F7D3DAE09D
:1009E00001229143A96001686F4A0A400260FFF743
:1009F000B9FE0600A868800708D5FFF7B3FE801B84
:100A00000328F7D3C7E000BF00100240207840075A
:100A100077D500200190009080204005A96B01400F
:100A200004D1A96B0843A863012001905F480068C6
:100A3000C00514D45D480068A90D01435B480160FE
:100A400001200090FFF78EFE060058480068C005A0
:100A500005D4FFF787FE801B6528F6D39BE0A168CD
:100A6000A80D81420DD0AA48002913D0A022D2009F
:100A700091420FD1286D38402865286D290D01431A
:100A80002965286DA90D0143296509E0FFFFFEFFD7
:100A9000FFFFFBFF296D39402965296D0840286556
:100AA000A06800280CD0FFF75DFE0600286D8005C9
:100AB00018D4FFF757FE801B08498842F6D36AE036
:100AC000FFF750FE0600286D80050BD5FFF74AFEA4
:100AD000801B02498842F6D35DE000BF8913000005
:100AE000FFE0FFFF0098002804D03048006807406E
:100AF0002E4807600198002803D0A86B8549014063
:100B0000A963A06A002848D0E9680C220A400C2A90
:100B100000D149E68027BF047F49022828682DD1EB
:100B200001402960FFF71EFE0600286838400BD000
:100B3000FFF718FE801B0328F7D32CE0FFFEFFFF12
:100B4000FF1FFFFFA0250008E86890490140206BC7
:100B50000843616B0143E06A0843E860286879084C
:100B600001432960FFF7FEFD06002868384014D1D4
:100B7000FFF7F8FD801B0328F7D30CE00140296044
:100B8000FFF7F0FD06002868384006D0FFF7EAFDC1
:100B9000801B0328F7D30320FEBD0020FEBD00BF4D
:100BA0008C00002020000140FFDFFFFF00700040AC
:100BB000F2B582B004000127FF43012574480068A4
:100BC000284088420AD27248006838400143704881
:100BD0000160006828400299884274D16D4E2078E7
:100BE000800705D5F068F0218843A1680143F160D2
:100BF0002068284055D06068022802D131688903F6
:100C000008E0002802D13168890503E00328316833
:100C100002D1890102D456E0490754D5F168032274
:100C200091430843F060FFF79DFD00906068022843
:100C30000CD1F0680C210140082932D0FFF792FD59
:100C40000099401A54498842F3D328E003280CD174
:100C5000F0680C2101400C2923D0FFF783FD009997
:100C6000401A4D498842F3D319E000280BD1F068AF
:100C70000C21014015D0FFF775FD0099401A464937
:100C80008842F4D30BE0F0680C210140042908D01D
:100C9000FFF768FD0099401A3F498842F3D30320CB
:100CA000FEBD3B4800682840029988420DD3384871
:100CB0000068074008463843354908600868054021
:100CC0000298854201D00120FEBD2078400705D55D
:100CD000F06832490140E0680843F060207800077E
:100CE00006D5F0682E4901402069C0000843F06035
:100CF00000F014F82B49F2681206120F895CC84004
:100D000029490860032000F055F80020FEBD0000CE
:100D1000FFFBFFFFFFFFFFEFFFFFFFFEF0B51D4DE5
:100D20006868224A530054081026E9680C270F40CF
:100D3000042F04D0082F09D00C2F09D01FE02868F9
:100D4000064001D02000F0BD1800F0BD1000F0BD3D
:100D5000E868E968164F8002000F385C0902890FC5
:100D6000491CEF68FF0306D42A68164001D060438F
:100D700002E0584300E0504300F030F8F0BD01219C
:100D80000004400F401C8140C803F0BDFFFF02FF7C
:100D9000002002400010024089130000FFF8FFFF0E
:100DA000FFC7FFFFA02500088C00002000127A007A
:100DB000B025000810B5040007480068FA21890032
:100DC00000F00CF800F080F8002221000020C04361
:100DD00000F076F8002010BD8C0000200022030AED
:100DE0008B420BD203098B4219D243088B422ED27D
:100DF000411A00D20146524110467047FF220902B3
:100E00003FD012068B4205D3121209028B4201D346
:100E10001212090203098B4219D300E0090AC3091F
:100E20008B4201D3CB01C01A524183098B4201D3BB
:100E30008B01C01A524143098B4201D34B01C01AA6
:100E4000524103098B4201D30B01C01A5241C3081E
:100E50008B4201D3CB00C01A524183088B4201D38D
:100E60008B00C01A524143088B4201D34B00C01A79
:100E70005241884200D3401A5241CFD20146104617
:100E8000704708B500F03AF808BDFEE710B5C2009B
:100E900018231340FF249C40E2438907090E994020
:100EA000002804D5124B0007000F083800E0114B52
:100EB00080088000181803681A401143016010BDB3
:100EC00080B5FFF7E3FF01BD10B5401E8021490446
:100ED000884201D3012010BD074C6060032100202F
:100EE000C043FFF7D3FF0020A0600721216010BDA1
:100EF0001CED00E000E400E010E000E07047FEE7D9
:100F0000F5B583B00C000025002700F0EDF8694628
:100F10000871684600790028039804D0503000F02A
:100F2000DDFA461C08E000F0D9FA060003985030BC
:100F300000F0D4FA3618761C0398F02149004018C6
:100F400000900078002827D0009800F0C7FAC51C50
:100F500070190830FF2E00D9C01CFF2D00D9C01C0D
:100F6000FF280CD9C121217002216170010EA170EE
:100F7000010CE170010A21716071062705E0D121A1
:100F8000217002216170A070032752A0E11902783C
:100F90000A7042784A70BF1CE01981210170FF2E4F
:100FA00001D89121017000990978002903D10178B5
:100FB00040220A430270781C01272754401C211844
:100FC000401CFF2E0AD9320E0A70310C2154401CED
:100FD000310A2154401C2654401C00E00E703EA1F2
:100FE00022180B781370401C694609792154461C5D
:100FF0006846007900280BD1039800F06FFA0200D0
:101000000399A01900F072FA039800F067FA3618F5
:101010000398503000F062FA020003995031A01991
:1010200000F064FA0398503000F058FA3018009934
:101030000978002931D02118401CFF2D0CD94122FC
:101040000A702754401C290E2154401C290C21549D
:10105000401C290A215402E051220A702754401CE6
:101060002554401C1DA122180B781370401C02212E
:101070002154401C1AA122180B7813704B7853701E
:10108000851C009800F02AFA02000099601900F00F
:101090002DFA009800F022FA28180499088005B06B
:1010A000F0BD000010B582B000216A4611800D4CE1
:1010B000A11CFFF725FF68460088000A20706846DB
:1010C00000886070220068460188891C002000F0BA
:1010D0003BFA16BD5370000055000000540000009C
:1010E000656E00001808002010B504000B22AA4904
:1010F00000F050FB002801D1012010BD0C22A749AF
:10110000200000F047FB002801D1022010BD07227B
:10111000A349200000F03EFB002801D1032010BDB0
:101120000822A049200000F035FB002801D104204E
:1011300010BD04229C49200000F02CFB002801D1A6
:10114000052010BD07229949200000F023FB00284C
:1011500001D1062010BD1A229549200000F01AFB8B
:10116000002801D1072010BD0A229249200000F07A
:1011700011FB002801D1082010BD07228E49200054
:1011800000F008FB002801D1092010BD072200BF94
:101190008AA1200000F0FEFA002801D10A2010BD2B
:1011A000062200BF88A1200000F0F4FA002801D137
:1011B0000B2010BD062200BF85A1200000F0EAFA36
:1011C000002801D10C2010BD062200BF82A1200002
:1011D00000F0E0FA002801D10D2010BD062200BF6A
:1011E0007FA1200000F0D6FA002801D10E2010BD0A
:1011F000052200BF7CA1200000F0CCFA002801D11C
:101200000F2010BD092200BF79A1200000F0C2FA12
:10121000002801D1102010BD052200BF77A12000B9
:1012200000F0B8FA002801D1112010BD072200BF3C
:1012300074A1200000F0AEFA002801D1122010BDE8
:10124000042200BF72A1200000F0A4FA002801D1FE
:10125000132010BD042200BF6FA1200000F09AFAF5
:10126000002801D1142010BD042200BF6CA1200071
:1012700000F090FA002801D1152010BD052200BF12
:1012800069A1200000F086FA002801D1162010BDC7
:10129000052200BF66A1200000F07CFA002801D1E1
:1012A000172010BD082200BF63A1200000F072FAD1
:1012B000002801D1182010BD0A2200BF61A1200022
:1012C00000F068FA002801D1192010BD092200BFE2
:1012D0005FA1200000F05EFA002801D11A2010BDA5
:1012E0000A2200BF5DA1200000F054FA002801D1BD
:1012F0001B2010BD0B2200BF5BA1200000F04AFAAA
:10130000002801D11C2010BD072200BF5AA12000D7
:1013100000F040FA002801D11D2010BD0B2200BFB3
:1013200058A1200000F036FA002801D11E2010BD7F
:101330000B2200BF57A1200000F02CFA002801D199
:101340001F2010BD0C2200BF56A1200000F022FA81
:10135000002801D1202010BD0C2200BF55A1200083
:1013600000F018FA002801D1212010BD082200BF8A
:1013700054A1200000F00EFA002801D1222010BD57
:10138000082200BF52A1200000F004FA002801D179
:10139000232010BD002010BDC8240008D824000858
:1013A000E8240008F42400080025000808250008A7
:1013B00014250008302500083C2500087366747069
:1013C0003A2F2F0000000000736D623A2F2F0000AB
:1013D0006E66733A2F2F00006674703A2F2F00004C
:1013E0006461763A2F2F00006E6577733A00000033
:1013F00074656C6E65743A2F2F000000696D617022
:101400003A000000727473703A2F2F000000000041
:1014100075726E3A00000000706F703A00000000B4
:101420007369703A00000000736970733A0000003D
:10143000746674703A00000062747370703A2F2FF3
:101440000000000062746C326361703A2F2F00005C
:101450006274676F65703A2F2F0000007463706FBD
:101460006265783A2F2F0000697264616F62657857
:101470003A2F2F000000000066696C653A2F2F009C
:101480000000000075726E3A6570633A69643A0054
:101490000000000075726E3A6570633A746167000F
:1014A0000000000075726E3A6570633A7061743ABC
:1014B0000000000075726E3A6570633A7261773AA7
:1014C0000000000075726E3A6570633A000000001B
:1014D00075726E3A6E66633A00000000010000E02B
:1014E000491C0A78002AFBD1081A7047124207D01B
:1014F0008B0706D00B78491C0370401C521EF7D88E
:101500007047830706D00B78491C0370401C521E9D
:10151000F9D1704770B4103A03D378C9103A78C043
:10152000FBD2530701D318C918C001D508C908C098
:10153000D20704D30B880380891C801C002A01D5A4
:101540000B78037070BC7047F1B584B014000026AE
:1015500068460681891E019108468C49884201D35C
:1015600003205BE000F0B7F8002830D120780002BB
:10157000617808430090864F03AD01980099884236
:1015800016D1FF296E7009DB6E800322F968491CB1
:1015900089B2681C00F04DF9042007E00122F968C7
:1015A000491C89B2681C00F044F902206946088190
:1015B000019A92B2F8686946098940186946098A11
:1015C000411889B2A01C00F034F9002801D0012094
:1015D00024E00198009988421FD1FF2907DBFF20F2
:1015E00068702078A8706078E870032202E0607864
:1015F00068700122F968491C89B2681C00F019F969
:10160000FE2028700122F86869460989401800996F
:10161000411889B203A800F00CF9002005B0F0BD14
:1016200010B504000422002100F003F90100A078A5
:10163000002807D1080005D104220421201D00F054
:10164000F8F8010011E010B504000422002100F0B8
:10165000E6F80100A078002807D1080005D104228F
:101660000421201D00F0DBF80100080000D001205B
:1016700010BD10B584B0464C01A821780170617886
:101680004170A1788170E278C2700422FF2904D1F0
:10169000E1880A0A8271C1710822E260FFF7C0FF87
:1016A000010016D10320694608700122E16889B261
:1016B000684600F0BEF800280AD169460870012289
:1016C000E168491C89B2684600F0B3F8002800D0F0
:1016D000012004B010BD70B584B000252C4C2572DB
:1016E00001A8FFF7B0FF01004CD101A80178E12962
:1016F00001D0E22945D14178FC220A40402A40D15C
:101700008278130007D1002283791D02C3791D431B
:101710002E00082301E016000423E360E580A27098
:10172000027822706170C078E0706D4605E0A9789B
:101730000902EA7889184018E0600422E16889B259
:10174000684600F06CF800281BD1E068B04218D25F
:1017500069782A78032A0BD1002901D1012004E0FD
:1017600003206178014200D102202072002009E0AC
:10177000FD2A02D1FF29DAD0DDE7FE2A01D0401C84
:10178000DAE7052004B070BD00000000010200008F
:10179000540A002010B402E0401C491C521E002ACA
:1017A00009D00B7804789C42F6D002D20020C043C6
:1017B00002E0012000E0002010BC704770B582B04C
:1017C000002469460C70264D2878002818D1254E33
:1017D0003068010002D08047002801D0012076BD8A
:1017E000684671688847684600785A2803D04E28B2
:1017F00001D05E2806D1012028706E601A48706200
:10180000002076BD6C602C70E8E780B5144949680B
:1018100089680A0001D1012002BD884702BD10B5C8
:101820000F4B5B685B691C0001D1012010BD98471C
:1018300010BD10B50A4B5B689B691C0001D10120EB
:1018400010BD9847FFE7010004D10120FFF7DDFF3D
:101850000028FAD110BD02484068406A7047000075
:10186000640A0020000000202800002080B500F05D
:1018700032FB02BD80B501226B4900F065F802BD64
:1018800080B50100A62000F032FB02BD80B501004A
:101890000120CA0702D500F0C2F902BD890701D5AF
:1018A00000F0D2F902BD10B582B0040001229121EE
:1018B0000901684600F048F8010008D16846007840
:1018C000000701D5022000E001202080002016BD85
:1018D00070B504000D0016000120FFF7D1FF0028AD
:1018E00001D0032070BD33002A00A6213AE0F8B5EC
:1018F00015000C0007000120FFF7C2FF002801D0EF
:101900000320F2BD052D05DB0420A107890F401A35
:10191000C0B200E0E8B20090009BDBB2A2B2A62108
:10192000380000F0DCFA060000983F1824182D1A41
:10193000ADB20120FFF7A4FF0028FAD1002D01D09D
:101940003000DFD03000F2BD70B504000D0016008D
:101950000120FFF795FF002801D0032070BD330060
:101960002A00AE21200000F0BEFA70BDF8B51500C7
:101970000C0007000120FFF783FF002801D003209F
:10198000F2BD052D05DB0420A107890F401AC0B266
:1019900000E0E8B20090009BDBB2A2B2AE213800BA
:1019A00000F09DFA060000983F1824182D1AADB2D9
:1019B0000120FFF765FF0028FAD1002D01D030008B
:1019C000DFD03000F2BD30B583B004000822854975
:1019D0006846FFF7B9FF010019D1002020600021FF
:1019E0006A4623681B024D425519ED791D43256057
:1019F000491C0429F5DB6060616809024342D31881
:101A0000DB780B436360401C0428F5DB00203EBDFF
:101A100080B501227449FFF797FF02BD80B501220E
:101A20007249FFF791FF02BD1C0900001CB50400BC
:101A3000082211026846FFF787FF010011D16846AE
:101A4000C179E1718179A171417961710179217166
:101A5000C178E1708178A170417861700078207060
:101A6000002016BD38B50400002069460870E00863
:101A700080252D010543012229006846FFF764FFF8
:101A800001000CD16846007801216207520F914095
:101A900001436846017001222900FFF767FF32BD4C
:101AA00038B50400002069460870E00880252D0143
:101AB0000543012229006846FFF746FF01000DD1CA
:101AC0006846007801216207520F914088436946B9
:101AD0000870012229006846FFF748FF32BD10B5A3
:101AE00084B0040068460C2100F0A8FA6846092179
:101AF00001710021CB002200DA4043181A705A719C
:101B0000491C0429F6DB09231A02AE2100F0E7F98B
:101B100004B010BD10B584B0040068460C2100F07C
:101B20008DFA6846072101710021CB002200DA40BE
:101B300043181A705A71491C0429F6DB0922110254
:101B4000FFF714FF04B010BD10B582B00C000122E5
:101B500001006846FFF7F8FE010010D168460078E2
:101B6000C107C90F2170032069460978490801405F
:101B7000617069460978C9080840A070002016BD48
:101B800010B582B08A78D200182313406A461370C9
:101B90001A464B785B0006241C4014436A461470B6
:101BA0000978CB07DB0F234369460B700122010044
:101BB0006846FFF7DBFE16BD10B582B004000322B5
:101BC0000B496846FFF7C0FE010009D168468178DD
:101BD0002170417861800902007801436180002012
:101BE00016BD0000140900001309000012090000CE
:101BF0001D09000010B582B00400012291210901E5
:101C00006846FFF7A1FE010008D168460178082068
:101C10000140080000D001202070002016BD10B542
:101C200082B09124240101232200AE21684600F0F5
:101C30005AF9010007D100206946087001222100ED
:101C40006846FFF793FE16BD10B582B091242401BB
:101C5000012221006846FFF777FE010009D168469E
:101C60000078082101436846017001222100FFF736
:101C70007DFE16BD10B582B004000122912109013C
:101C80006846FFF761FE010008D16846017804202C
:101C90000140080000D001202070002016BD10B5C2
:101CA00082B091242401012221006846FFF74CFEF6
:101CB000010009D168460078FB21014068460170A7
:101CC00001222100FFF752FE16BD10B582B091240B
:101CD0002401012221006846FFF736FE010009D1E8
:101CE0006846007804210143684601700122210002
:101CF000FFF73CFE16BD10B582B004000122912111
:101D000009016846FFF720FE010011D10320694652
:101D100009780140012904D007D3032906D002D352
:101D200003E0012002E0022000E0002020700020FB
:101D300016BD38B5040091252D0101222900684601
:101D4000FFF702FE01000AD168460078FC2101403D
:101D50000C436846047001222900FFF707FE32BDDC
:101D600010B582B004000122922109016846FFF7F4
:101D7000EBFD010007D168460078C007C00F00D016
:101D800001202070002016BD10B582B092242401DD
:101D9000012221006846FFF7D7FD010009D16846FE
:101DA0000078012101436846017001222100FFF7FC
:101DB000DDFD16BD10B582B0922424010122210060
:101DC0006846FFF7C1FD010009D168460078FE2191
:101DD00001406846017001222100FFF7C7FD16BDD2
:101DE00010B582B0040000206946087001229221DB
:101DF00009016846FFF7A8FD010008D1684601788F
:101E000002200140080000D001202070002016BDF3
:101E100010B582B0040000206946087001229221AA
:101E200009016846FFF790FD010008D16846017876
:101E300080200140080000D001202070002016BD45
:101E400000B587B001206B490A6802430A600A683E
:101E500002400092009A02220B6813430B6009684B
:101E60000A400092009930210191029003200490D1
:101E70000020039001A9604800F0E2F88020C00033
:101E8000019021E080B55D49C0000818012204E0FE
:101E900080B55A49C000081800220188406800F047
:101EA00092F901BD00B587B0012052490A6802438A
:101EB0000A600968084000900098402001900020C6
:101EC000029003210491039001A9A020C00500F015
:101ED000B7F807B000BD80B500F00DF802BD80B5C1
:101EE00000F058F802BD80B500F05FF802BD80B583
:101EF00000F06FF802BDF0B587B0FFF7D3FF002404
:101F00003F4F3800FEF7D2FA00283ED13D483860F6
:101F10003D4878600120F8603C61FC613C6202252C
:101F20003448016829430160016829400091009903
:101F30000168294301600168294000910099C16846
:101F40002A050A43C260800D01900295039403267E
:101F500004960420059001A9274800F071F8280292
:101F6000019012200290039404960420059001A988
:101F7000214800F065F83800FEF7A2F8002804D0E8
:101F8000022805D003D2012002E0002000E0032057
:101F900007B0F0BD10B584B0C8240294019300903E
:101FA00002231748FEF7E2F809E010B584B0C82410
:101FB00002940193009002231148FEF757F900287C
:101FC00005D0022803D001D2012000E0032004B094
:101FD00010BD80B5C8230A0001000948FEF7D4F9F6
:101FE000002805D0022803D001D2012002BD032021
:101FF00002BD00002C1002400004005090000020A0
:10200000180A00200054004009033210130030B4B5
:1020100014001500103902D310393CC0FCD2490716
:1020200000D30CC000D504C0890002D30280801CFC
:10203000002900D5027030BC704700000022E5E79F
:10204000FFB5002329E006256F46BF78BD40354324
:10205000039E35605F4D2E68E5432E404F68FF03B9
:1020600000D526435B4F3E607E682E404F68BF031D
:1020700000D52643574F7E60BE682E404F68FF0252
:1020800000D52643534FBE60FE6835404E68B60209
:1020900001D52C432500FD605B1C0D682C00DC4045
:1020A00000D18FE001249C4002942C40F4D09D008C
:1020B0006E4675704D68022D01D0122D1AD1DD08C3
:1020C000AD0045192E6A01966E4677781C263E4073
:1020D0006F463E70019FBC466E4637780F26BE4065
:1020E0006746B743BC460F696E463678B7406646CA
:1020F00037432F625E000327B740FD4301954D68CB
:10210000012D05D0022D03D0112D01D0122D11D19A
:102110008768019D3D40CF68B7402F43876047687F
:10212000029DAF43BC464F68FD06ED0F9D406746DC
:102130003D4345600768019D3D400F79BF07BF0FD4
:10214000B7402F430760C768019D3D408F68BC467C
:1021500037006646BE402E43C6604D68ED009BD5F5
:102160001D4D2D6801262E431B4D2E601B4D9E08D4
:10217000B600AD1903952E686D466F780C253D406D
:102180006F46BD706D46AF780F25BD40AE43A025AC
:10219000ED05A84201D1002556E7114DA84201D115
:1021A000012551E70F4DA84201D102254CE70E4D04
:1021B000A84201D1032547E70C4DA84200D042E7D1
:1021C000052541E7FFBD002A01D08161704781628A
:1021D0007047000000040140341002400800014034
:1021E0000004005000080050000C0050001C00507B
:1021F00038B500F085F800F098F8002000F0CEF82F
:10220000FFF71EFE0020FFF73DFEFA2464002000C9
:1022100000F0FAF80120FFF735FE200000F0F4F896
:102220000220FFF72FFE200000F0EEF80020FFF75D
:102230002FFE200000F0E8F80120FFF729FE200023
:1022400000F0E2F80220FFF723FEFFF7B7FA0028BC
:10225000FBD100F033F8FFF73EFA00280BD014480A
:10226000E12101704021417081700521C170FFF7AB
:1022700000FA0028FBD10120FFF704FE0D4C00BF3F
:1022800018A00EC80EC40C3C1AA0210050312CC856
:102290002CC109A0F0214900611802780A702000C1
:1022A000FEF700FF0028FAD10220FFF7EBFDFEE762
:1022B000540A0020A80400200000000080B5FFF7A9
:1022C000CAFA00280DD0FFF7C6FA006D8047FFF765
:1022D000C2FAC06B8047FFF7BEFA01000020896C8C
:1022E000884701BD687474703A2F2F7777772E0076
:1022F0000000000073742E636F6D2F73743235000D
:1023000080B50848016840220A4302600168022241
:102310000A4302600320FEF74DFD00F005F800209F
:1023200002BD000000200240704710B594B019486B
:102330000168802252050A43026017480168C022E2
:1023400052010A4302601020059001200C90A02049
:1023500000020E9000240D940F9405A8FEF708FAD1
:10236000002803D0002000F03CF8FEE70F2000908A
:10237000019402940394049400216846FEF718FC2B
:10238000002803D0002000F02CF8FEE714B010BDA8
:1023900000000000381002400070004030B587B0E7
:1023A0000121174A13680B43136012680A40009218
:1023B000009A00BF11A24300D55A01950291002155
:1023C0000391032104910F4980000C1801A9206892
:1023D000FFF736FE002229002068FFF7F4FE07B061
:1023E00030BD80B50122FFE704A14300C95A054B67
:1023F00080001858FFF7E7FE01BD00002000000034
:102400002C1002408800002011B581B0FEF7AAF917
:102410000400FEF7A7F9001B01998842F9D313BD08
:102420006D18000875180008811800088D1800083C
:10243000A7180008D1180008EF180008491900086B
:102440006D19000800000000C7190008111A0008E3
:102450001D1A00082D1A0008651A0008A11A0008A4
:10246000DF1A0008151B0008491B0008811B000823
:10247000B91B0008F51B00081F1C0008491C0008B8
:10248000751C00089F1C0008CB1C0008F71C0008E6
:10249000331D0008611D0008891D0008B51D0008D6
:1024A000E11D0008111E00080000005080841E007D
:1024B0001000000000040050200000000004005044
:1024C0000004000000000050687474703A2F2F77E9
:1024D00077772E000000000068747470733A2F2F15
:1024E0007777772E00000000687474703A2F2F0001
:1024F0000000000068747470733A2F2F0000000011
:1025000074656C3A000000006D61696C746F3A008C
:10251000000000006674703A2F2F616E6F6E796D47
:102520006F75733A616E6F6E796D6F7573400000F1
:102530006674703A2F2F6674702E00006674707384
:102540003A2F2F00000000000F480168820D0A4357
:102550000260C1680D4A0A40C26001680C4A0A4024
:10256000026081680122914381600168094A0A4042
:102570000260C168084A0A40C260002101618020EF
:102580000005064908607047001002400C40FF88B3
:10259000F6FFF6FEFFFFFBFFFFFF02FF08ED00E086
:1025A0000000000000000000010203040607080903
:1025B000030406080C1018203000000070B401213C
:1025C000002213E00468001D0C4202D04D466D1E2F
:1025D00064192260241D1B1F042BFAD225009E07BC
:1025E00001D52280AD1C0B4000D02A700368001D6D
:1025F000002BE7D170BC704730B401210268001D88
:10260000002A0FD00368C318446808300C4202D077
:102610004D466D1E64191D6825601B1D241D121F6B
:10262000ECD0F8E730BC704710B507497944183151
:10263000064C7C44163404E0081D0A688918884753
:102640000100A142F8D110BD0800000028000000E0
:102650006DFFFFFFC8050000A80400200000000077
:1026600099FFFFFFA8000000B8FDFFFF0000002059
:102670000000000000F00BF8002801D0FFF7D4FFA5
:10268000002000BF00BFFFF7B3FD00F002F80120FB
:10269000704780B500F002F801BDFEE707463846F6
:1026A00000F002F8FBE7FEE780B500BF00BF024A7A
:1026B00011001820ABBEFBE7260002007047FEE7C2
:1026C00070477047704780B500F002F801BD704751
:1026D00002480168491C0160704700BF6C0A002075
:1026E000014880470148004749250008F1260008B5
:1026F00000BF00BF00BF00BFFFF7BCFFFEE7FEE763
:10270000FEE7FEE7FEE7FEE7FEE7FEE7FEE7FEE7A1
:10271000FEE7FEE7FEE7FEE7FEE7FEE7FEE7FEE791
:06272000FEE7FEE7FEE704
:04000005080026F1D8
:00000001FF
